{"abi":[{"type":"constructor","inputs":[{"name":"_hasher","type":"address","internalType":"contract IHasher"},{"name":"_verifier","type":"address","internalType":"contract IVerifier"},{"name":"_denomination","type":"uint256","internalType":"uint256"},{"name":"_merkleTreeHeight","type":"uint32","internalType":"uint32"}],"stateMutability":"nonpayable"},{"type":"function","name":"FIELD_SIZE","inputs":[],"outputs":[{"name":"","type":"uint256","internalType":"uint256"}],"stateMutability":"view"},{"type":"function","name":"commitments","inputs":[{"name":"","type":"bytes32","internalType":"bytes32"}],"outputs":[{"name":"","type":"bool","internalType":"bool"}],"stateMutability":"view"},{"type":"function","name":"denomination","inputs":[],"outputs":[{"name":"","type":"uint256","internalType":"uint256"}],"stateMutability":"view"},{"type":"function","name":"deposit","inputs":[{"name":"commitment","type":"bytes32","internalType":"bytes32"}],"outputs":[],"stateMutability":"payable"},{"type":"function","name":"filledSubtrees","inputs":[{"name":"","type":"uint256","internalType":"uint256"}],"outputs":[{"name":"","type":"bytes32","internalType":"bytes32"}],"stateMutability":"view"},{"type":"function","name":"hashLeftRight","inputs":[{"name":"_left","type":"bytes32","internalType":"bytes32"},{"name":"_right","type":"bytes32","internalType":"bytes32"}],"outputs":[{"name":"","type":"bytes32","internalType":"bytes32"}],"stateMutability":"view"},{"type":"function","name":"hasher","inputs":[],"outputs":[{"name":"","type":"address","internalType":"contract IHasher"}],"stateMutability":"view"},{"type":"function","name":"insert","inputs":[{"name":"_leaf","type":"bytes32","internalType":"bytes32"}],"outputs":[{"name":"","type":"uint32","internalType":"uint32"}],"stateMutability":"nonpayable"},{"type":"function","name":"isKnownRoot","inputs":[{"name":"_root","type":"bytes32","internalType":"bytes32"}],"outputs":[{"name":"","type":"bool","internalType":"bool"}],"stateMutability":"view"},{"type":"function","name":"levels","inputs":[],"outputs":[{"name":"","type":"uint32","internalType":"uint32"}],"stateMutability":"view"},{"type":"function","name":"nextIndex","inputs":[],"outputs":[{"name":"","type":"uint32","internalType":"uint32"}],"stateMutability":"view"},{"type":"function","name":"nullilfierHashes","inputs":[{"name":"","type":"bytes32","internalType":"bytes32"}],"outputs":[{"name":"","type":"bool","internalType":"bool"}],"stateMutability":"view"},{"type":"function","name":"root","inputs":[],"outputs":[{"name":"","type":"bytes32","internalType":"bytes32"}],"stateMutability":"view"},{"type":"function","name":"verifier","inputs":[],"outputs":[{"name":"","type":"address","internalType":"contract IVerifier"}],"stateMutability":"view"},{"type":"function","name":"withdraw","inputs":[{"name":"_proof","type":"bytes","internalType":"bytes"},{"name":"_root","type":"bytes32","internalType":"bytes32"},{"name":"_nullilfierHash","type":"bytes32","internalType":"bytes32"},{"name":"_recipient","type":"address","internalType":"address"}],"outputs":[],"stateMutability":"nonpayable"},{"type":"function","name":"zeros","inputs":[{"name":"i","type":"uint32","internalType":"uint32"}],"outputs":[{"name":"","type":"bytes32","internalType":"bytes32"}],"stateMutability":"pure"},{"type":"event","name":"Deposit","inputs":[{"name":"commitment","type":"bytes32","indexed":false,"internalType":"bytes32"},{"name":"leafIndex","type":"uint32","indexed":false,"internalType":"uint32"}],"anonymous":false},{"type":"event","name":"Withdraw","inputs":[{"name":"_recipient","type":"address","indexed":false,"internalType":"address"},{"name":"_nullilfierHash","type":"bytes32","indexed":false,"internalType":"bytes32"}],"anonymous":false},{"type":"error","name":"ReentrancyGuardReentrantCall","inputs":[]}],"bytecode":{"object":"0x60c06040523480156200001157600080fd5b5060405162002087380380620020878339810160408190526200003491620007ec565b6000805463ffffffff191663ffffffff83161781556001600160a01b038516608052819085905b60005463ffffffff9081169082161015620000a6576200007b81620000c7565b63ffffffff8216600090815260016020526040902055806200009d8162000850565b9150506200005b565b5050600160035550506001600160a01b0390911660a0526004555062000882565b60008163ffffffff16600003620000ff57507f2fe54c60d3acabf3343a35b6eba15db4821b340f76e741e2249685ed4899af6c919050565b8163ffffffff166001036200013557507f256a6135777eee2fd26f54b8b7037a25439d5235caee224154186d2b8a52e31d919050565b8163ffffffff166002036200016b57507f1151949895e82ab19924de92c40a3d6f7bcb60d92b00504b8199613683f0c200919050565b8163ffffffff16600303620001a157507f20121ee811489ff8d61f09fb89e313f14959a0f28bb428a20dba6b0b068b3bdb919050565b8163ffffffff16600403620001d757507f0a89ca6ffa14cc462cfedb842c30ed221a50a3d6bf022a6a57dc82ab24c157c9919050565b8163ffffffff166005036200020d57507f24ca05c2b5cd42e890d6be94c68d0689f4f21c9cec9c0f13fe41d566dfb54959919050565b8163ffffffff166006036200024357507f1ccb97c932565a92c60156bdba2d08f3bf1377464e025cee765679e604a7315c919050565b8163ffffffff166007036200027957507f19156fbd7d1a8bf5cba8909367de1b624534ebab4f0f79e003bccdd1b182bdb4919050565b8163ffffffff16600803620002af57507f261af8c1f0912e465744641409f622d466c3920ac6e5ff37e36604cb11dfff80919050565b8163ffffffff16600903620002e457507e58459724ff6ca5a1652fcbc3e82b93895cf08e975b19beab3f54c217d1c007919050565b8163ffffffff16600a036200031a57507f1f04ef20dee48d39984d8eabe768a70eafa6310ad20849d4573c3c40c2ad1e30919050565b8163ffffffff16600b036200035057507f1bea3dec5dab51567ce7e200a30f7ba6d4276aeaa53e2686f962a46c66d511e5919050565b8163ffffffff16600c036200038657507f0ee0f941e2da4b9e31c3ca97a40d8fa9ce68d97c084177071b3cb46cd3372f0f919050565b8163ffffffff16600d03620003bc57507f1ca9503e8935884501bbaf20be14eb4c46b89772c97b96e3b2ebf3a36a948bbd919050565b8163ffffffff16600e03620003f257507f133a80e30697cd55d8f7d4b0965b7be24057ba5dc3da898ee2187232446cb108919050565b8163ffffffff16600f036200042857507f13e6d8fc88839ed76e182c2a779af5b2c0da9dd18c90427a644f7e148a6253b6919050565b8163ffffffff166010036200045e57507f1eb16b057a477f4bc8f572ea6bee39561098f78f15bfb3699dcbb7bd8db61854919050565b8163ffffffff166011036200049457507f0da2cb16a1ceaabf1c16b838f7a9e3f2a3a3088d9e0a6debaa748114620696ea919050565b8163ffffffff16601203620004ca57507f24a3b3d822420b14b5d8cb6c28a574f01e98ea9e940551d2ebd75cee12649f9d919050565b8163ffffffff166013036200050057507f198622acbd783d1b0d9064105b1fc8e4d8889de95c4c519b3f635809fe6afc05919050565b8163ffffffff166014036200053657507f29d7ed391256ccc3ea596c86e933b89ff339d25ea8ddced975ae2fe30b5296d4919050565b8163ffffffff166015036200056c57507f19be59f2f0413ce78c0c3703a3a5451b1d7f39629fa33abd11548a76065b2967919050565b8163ffffffff16601603620005a257507f1ff3f61797e538b70e619310d33f2a063e7eb59104e112e95738da1254dc3453919050565b8163ffffffff16601703620005d857507f10c16ae9959cf8358980d9dd9616e48228737310a10e2b6b731c1a548f036c48919050565b8163ffffffff166018036200060e57507f0ba433a63174a90ac20992e75e3095496812b652685b5e1a2eae0b1bf4e8fcd1919050565b8163ffffffff166019036200064457507f019ddb9df2bc98d987d0dfeca9d2b643deafab8f7036562e627c3667266a044c919050565b8163ffffffff16601a036200067a57507f2d3c88b23175c5a5565db928414c66d1912b11acf974b2e644caaac04739ce99919050565b8163ffffffff16601b03620006b057507f2eab55f6ae4e66e32c5189eed5c470840863445760f5ed7e7b69b2a62600f354919050565b8163ffffffff16601c03620006e557507e2df37a2642621802383cf952bf4dd1f32e05433beeb1fd41031fb7eace979d919050565b8163ffffffff16601d036200071b57507f104aeb41435db66c3e62feccc1d6f5d98d0a0ed75d1374db457cf462e3a1f427919050565b8163ffffffff16601e036200075157507f1f3c6fd858e9a7d4b0d1f38e256a09d81d5a5e3c963987e2d4b814cfab7c6ebb919050565b8163ffffffff16601f036200078757507f2c7a07d20dff79d01fecedc1134284a8d08436606c93693b67e333f671bf69cc919050565b60405162461bcd60e51b815260206004820152601360248201527f496e646578206f7574206f6620626f756e647300000000000000000000000000604482015260640160405180910390fd5b6001600160a01b0381168114620007e957600080fd5b50565b600080600080608085870312156200080357600080fd5b84516200081081620007d3565b60208601519094506200082381620007d3565b60408601516060870151919450925063ffffffff811681146200084557600080fd5b939692955090935050565b600063ffffffff8083168181036200087857634e487b7160e01b600052601160045260246000fd5b6001019392505050565b60805160a0516117ca620008bd6000396000818161010a0152610e97015260008181610310015281816105cf015261067f01526117ca6000f3fe6080604052600436106100f35760003560e01c8063a7f531311161008a578063ebf0c71711610059578063ebf0c717146102e8578063ed33639f146102fe578063f178e47c14610332578063fc7e9c6f1461035f57600080fd5b8063a7f5313114610263578063b130eaa614610283578063b214faa5146102a5578063ced1e003146102b857600080fd5b80634ecf518b116100c65780634ecf518b146101ce5780636d9833e3146101eb578063839df9451461021d5780638bca6d161461024d57600080fd5b80632b7ac3f3146100f85780632d287e431461014957806338bf282e1461017e578063414a37ba146101ac575b600080fd5b34801561010457600080fd5b5061012c7f000000000000000000000000000000000000000000000000000000000000000081565b6040516001600160a01b0390911681526020015b60405180910390f35b34801561015557600080fd5b506101696101643660046112c9565b610384565b60405163ffffffff9091168152602001610140565b34801561018a57600080fd5b5061019e6101993660046112e2565b6104e1565b604051908152602001610140565b3480156101b857600080fd5b5061019e60008051602061177583398151915281565b3480156101da57600080fd5b506000546101699063ffffffff1681565b3480156101f757600080fd5b5061020d6102063660046112c9565b6002541490565b6040519015158152602001610140565b34801561022957600080fd5b5061020d6102383660046112c9565b60056020526000908152604090205460ff1681565b34801561025957600080fd5b5061019e60045481565b34801561026f57600080fd5b5061019e61027e366004611304565b6106fd565b34801561028f57600080fd5b506102a361029e366004611331565b610ddb565b005b6102a36102b33660046112c9565b611174565b3480156102c457600080fd5b5061020d6102d33660046112c9565b60066020526000908152604090205460ff1681565b3480156102f457600080fd5b5061019e60025481565b34801561030a57600080fd5b5061012c7f000000000000000000000000000000000000000000000000000000000000000081565b34801561033e57600080fd5b5061019e61034d3660046112c9565b60016020526000908152604090205481565b34801561036b57600080fd5b5060005461016990640100000000900463ffffffff1681565b6000805463ffffffff64010000000082048116916103a4911660026114fb565b63ffffffff168163ffffffff16036103f95760405162461bcd60e51b815260206004820152601360248201527213595c9adb19481d1c9959481a5cc8199d5b1b606a1b60448201526064015b60405180910390fd5b8083600080805b60005463ffffffff908116908216101561049e5761041f60028661152e565b63ffffffff1660000361045757839250610438816106fd565b63ffffffff821660009081526001602052604090208590559150610473565b63ffffffff811660009081526001602052604090205492508391505b61047d83836104e1565b935061048a600286611551565b94508061049681611574565b915050610400565b5060028390556104af856001611597565b6000805463ffffffff929092166401000000000267ffffffff0000000019909216919091179055509295945050505050565b600060008051602061177583398151915283106105405760405162461bcd60e51b815260206004820181905260248201527f5f6c6566742073686f756c6420626520696e7369646520746865206669656c6460448201526064016103f0565b60008051602061177583398151915282106105a75760405162461bcd60e51b815260206004820152602160248201527f5f72696768742073686f756c6420626520696e7369646520746865206669656c6044820152601960fa1b60648201526084016103f0565b604051633f1a118760e01b8152600481018490526000602482018190526044820181905284917f00000000000000000000000000000000000000000000000000000000000000006001600160a01b031690633f1a1187906064016040805180830381865afa15801561061d573d6000803e3d6000fd5b505050506040513d601f19601f8201168201806040525081019061064191906115bb565b9092509050600080516020611775833981519152848308604051633f1a118760e01b81526004810182905260248101839052600060448201529092507f00000000000000000000000000000000000000000000000000000000000000006001600160a01b031690633f1a1187906064016040805180830381865afa1580156106cd573d6000803e3d6000fd5b505050506040513d601f19601f820116820180604052508101906106f191906115bb565b50925050505b92915050565b60008163ffffffff1660000361073457507f2fe54c60d3acabf3343a35b6eba15db4821b340f76e741e2249685ed4899af6c919050565b8163ffffffff1660010361076957507f256a6135777eee2fd26f54b8b7037a25439d5235caee224154186d2b8a52e31d919050565b8163ffffffff1660020361079e57507f1151949895e82ab19924de92c40a3d6f7bcb60d92b00504b8199613683f0c200919050565b8163ffffffff166003036107d357507f20121ee811489ff8d61f09fb89e313f14959a0f28bb428a20dba6b0b068b3bdb919050565b8163ffffffff1660040361080857507f0a89ca6ffa14cc462cfedb842c30ed221a50a3d6bf022a6a57dc82ab24c157c9919050565b8163ffffffff1660050361083d57507f24ca05c2b5cd42e890d6be94c68d0689f4f21c9cec9c0f13fe41d566dfb54959919050565b8163ffffffff1660060361087257507f1ccb97c932565a92c60156bdba2d08f3bf1377464e025cee765679e604a7315c919050565b8163ffffffff166007036108a757507f19156fbd7d1a8bf5cba8909367de1b624534ebab4f0f79e003bccdd1b182bdb4919050565b8163ffffffff166008036108dc57507f261af8c1f0912e465744641409f622d466c3920ac6e5ff37e36604cb11dfff80919050565b8163ffffffff1660090361091057507e58459724ff6ca5a1652fcbc3e82b93895cf08e975b19beab3f54c217d1c007919050565b8163ffffffff16600a0361094557507f1f04ef20dee48d39984d8eabe768a70eafa6310ad20849d4573c3c40c2ad1e30919050565b8163ffffffff16600b0361097a57507f1bea3dec5dab51567ce7e200a30f7ba6d4276aeaa53e2686f962a46c66d511e5919050565b8163ffffffff16600c036109af57507f0ee0f941e2da4b9e31c3ca97a40d8fa9ce68d97c084177071b3cb46cd3372f0f919050565b8163ffffffff16600d036109e457507f1ca9503e8935884501bbaf20be14eb4c46b89772c97b96e3b2ebf3a36a948bbd919050565b8163ffffffff16600e03610a1957507f133a80e30697cd55d8f7d4b0965b7be24057ba5dc3da898ee2187232446cb108919050565b8163ffffffff16600f03610a4e57507f13e6d8fc88839ed76e182c2a779af5b2c0da9dd18c90427a644f7e148a6253b6919050565b8163ffffffff16601003610a8357507f1eb16b057a477f4bc8f572ea6bee39561098f78f15bfb3699dcbb7bd8db61854919050565b8163ffffffff16601103610ab857507f0da2cb16a1ceaabf1c16b838f7a9e3f2a3a3088d9e0a6debaa748114620696ea919050565b8163ffffffff16601203610aed57507f24a3b3d822420b14b5d8cb6c28a574f01e98ea9e940551d2ebd75cee12649f9d919050565b8163ffffffff16601303610b2257507f198622acbd783d1b0d9064105b1fc8e4d8889de95c4c519b3f635809fe6afc05919050565b8163ffffffff16601403610b5757507f29d7ed391256ccc3ea596c86e933b89ff339d25ea8ddced975ae2fe30b5296d4919050565b8163ffffffff16601503610b8c57507f19be59f2f0413ce78c0c3703a3a5451b1d7f39629fa33abd11548a76065b2967919050565b8163ffffffff16601603610bc157507f1ff3f61797e538b70e619310d33f2a063e7eb59104e112e95738da1254dc3453919050565b8163ffffffff16601703610bf657507f10c16ae9959cf8358980d9dd9616e48228737310a10e2b6b731c1a548f036c48919050565b8163ffffffff16601803610c2b57507f0ba433a63174a90ac20992e75e3095496812b652685b5e1a2eae0b1bf4e8fcd1919050565b8163ffffffff16601903610c6057507f019ddb9df2bc98d987d0dfeca9d2b643deafab8f7036562e627c3667266a044c919050565b8163ffffffff16601a03610c9557507f2d3c88b23175c5a5565db928414c66d1912b11acf974b2e644caaac04739ce99919050565b8163ffffffff16601b03610cca57507f2eab55f6ae4e66e32c5189eed5c470840863445760f5ed7e7b69b2a62600f354919050565b8163ffffffff16601c03610cfe57507e2df37a2642621802383cf952bf4dd1f32e05433beeb1fd41031fb7eace979d919050565b8163ffffffff16601d03610d3357507f104aeb41435db66c3e62feccc1d6f5d98d0a0ed75d1374db457cf462e3a1f427919050565b8163ffffffff16601e03610d6857507f1f3c6fd858e9a7d4b0d1f38e256a09d81d5a5e3c963987e2d4b814cfab7c6ebb919050565b8163ffffffff16601f03610d9d57507f2c7a07d20dff79d01fecedc1134284a8d08436606c93693b67e333f671bf69cc919050565b60405162461bcd60e51b8152602060048201526013602482015272496e646578206f7574206f6620626f756e647360681b60448201526064016103f0565b610de361129f565b60008281526006602052604090205460ff1615610e425760405162461bcd60e51b815260206004820152601f60248201527f546865206e6f74652068617320616c7265616479206265656e207370656e740060448201526064016103f0565b6002548314610e855760405162461bcd60e51b815260206004820152600f60248201526e526f6f74206e6f742065786973747360881b60448201526064016103f0565b6000610e93858701876115df565b90507f00000000000000000000000000000000000000000000000000000000000000006001600160a01b03166311479fea604051806040016040528084600060088110610ee257610ee261166c565b6020020151815260200184600160088110610eff57610eff61166c565b6020020151905260408051608081018252858201519181019182529081906060820187600360200201518152508152602001604051806040016040528087600460088110610f4f57610f4f61166c565b6020020151815260200187600560088110610f6c57610f6c61166c565b60200201519052905260408051808201909152808660066020020151815260200186600760088110610fa057610fa061166c565b602002015181525060405180606001604052808a60001c81526020018960001c8152602001886001600160a01b03168152506040518563ffffffff1660e01b8152600401610ff194939291906116ab565b6020604051808303816000875af1158015611010573d6000803e3d6000fd5b505050506040513d601f19601f820116820180604052508101906110349190611752565b6110795760405162461bcd60e51b815260206004820152601660248201527524b73b30b634b2103bb4ba34323930bb90383937b7b360511b60448201526064016103f0565b600083815260066020526040808220805460ff1916600117905560045490516001600160a01b03851691908381818185875af1925050503d80600081146110dc576040519150601f19603f3d011682016040523d82523d6000602084013e6110e1565b606091505b505090508061111f5760405162461bcd60e51b815260206004820152600a6024820152691c185e4819985a5b195960b21b60448201526064016103f0565b604080516001600160a01b0385168152602081018690527fb18c630f7b4f080f2ce1a87d68860e67aef56b0978e448ed92312da4eebeb160910160405180910390a1505061116d6001600355565b5050505050565b61117c61129f565b60008181526005602052604090205460ff16156111db5760405162461bcd60e51b815260206004820152601d60248201527f54686520636f6d6d69746d656e7420686173206265656e20616464656400000060448201526064016103f0565b60045434146112215760405162461bcd60e51b815260206004820152601260248201527122b93937b9103232b737b6b4b730ba34b7b760711b60448201526064016103f0565b600061122c82610384565b60008381526005602052604090819020805460ff19166001179055519091507f84fc9eb8cd0a782a1d1734fbeed616bd0ef775f8b9bd437636b62d634fe4baf390611289908490849091825263ffffffff16602082015260400190565b60405180910390a15061129c6001600355565b50565b6002600354036112c257604051633ee5aeb560e01b815260040160405180910390fd5b6002600355565b6000602082840312156112db57600080fd5b5035919050565b600080604083850312156112f557600080fd5b50508035926020909101359150565b60006020828403121561131657600080fd5b813563ffffffff8116811461132a57600080fd5b9392505050565b60008060008060006080868803121561134957600080fd5b853567ffffffffffffffff8082111561136157600080fd5b818801915088601f83011261137557600080fd5b81358181111561138457600080fd5b89602082850101111561139657600080fd5b6020928301975095505086013592506040860135915060608601356001600160a01b03811681146113c657600080fd5b809150509295509295909350565b634e487b7160e01b600052601160045260246000fd5b600181815b80851115611427578163ffffffff0482111561140d5761140d6113d4565b8085161561141a57918102915b93841c93908002906113ef565b509250929050565b60008261143e575060016106f7565b8161144b575060006106f7565b8160018114611461576002811461146b5761149c565b60019150506106f7565b60ff84111561147c5761147c6113d4565b6001841b915063ffffffff821115611496576114966113d4565b506106f7565b5060208310610133831016604e8410600b84101617156114d3575081810a63ffffffff8111156114ce576114ce6113d4565b6106f7565b6114dd83836113ea565b8063ffffffff048211156114f3576114f36113d4565b029392505050565b600063ffffffff61151081851682851661142f565b949350505050565b634e487b7160e01b600052601260045260246000fd5b600063ffffffff8084168061154557611545611518565b92169190910692915050565b600063ffffffff8084168061156857611568611518565b92169190910492915050565b600063ffffffff80831681810361158d5761158d6113d4565b6001019392505050565b63ffffffff8181168382160190808211156115b4576115b46113d4565b5092915050565b600080604083850312156115ce57600080fd5b505080516020909101519092909150565b60006101008083850312156115f357600080fd5b83601f84011261160257600080fd5b60405181810181811067ffffffffffffffff8211171561163257634e487b7160e01b600052604160045260246000fd5b60405290830190808583111561164757600080fd5b845b83811015611661578035825260209182019101611649565b509095945050505050565b634e487b7160e01b600052603260045260246000fd5b8060005b60028110156116a5578151845260209384019390910190600101611686565b50505050565b61016081016116ba8287611682565b60408083018660005b60028082106116d2575061170d565b82518460005b838110156116f65782518252602092830192909101906001016116d8565b5050509284019250602091909101906001016116c3565b5050505061171e60c0830185611682565b61010082018360005b6003811015611746578151835260209283019290910190600101611727565b50505095945050505050565b60006020828403121561176457600080fd5b8151801515811461132a57600080fdfe30644e72e131a029b85045b68181585d2833e84879b9709143e1f593f0000001a2646970667358221220f6bdb3ac16aab114ed052c583122824b85a2a9cc4228373a73285f627d8b758664736f6c63430008140033","linkReferences":{}},"methodIdentifiers":{"FIELD_SIZE()":"414a37ba","commitments(bytes32)":"839df945","denomination()":"8bca6d16","deposit(bytes32)":"b214faa5","filledSubtrees(uint256)":"f178e47c","hashLeftRight(bytes32,bytes32)":"38bf282e","hasher()":"ed33639f","insert(bytes32)":"2d287e43","isKnownRoot(bytes32)":"6d9833e3","levels()":"4ecf518b","nextIndex()":"fc7e9c6f","nullilfierHashes(bytes32)":"ced1e003","root()":"ebf0c717","verifier()":"2b7ac3f3","withdraw(bytes,bytes32,bytes32,address)":"b130eaa6","zeros(uint32)":"a7f53131"},"id":2}