{"abi":[{"type":"constructor","inputs":[{"name":"_hasher","type":"address","internalType":"contract IHasher"},{"name":"_verifier","type":"address","internalType":"contract IVerifier"},{"name":"_merkleTreeHeight","type":"uint32","internalType":"uint32"}],"stateMutability":"nonpayable"},{"type":"function","name":"FIELD_SIZE","inputs":[],"outputs":[{"name":"","type":"uint256","internalType":"uint256"}],"stateMutability":"view"},{"type":"function","name":"commitments","inputs":[{"name":"","type":"bytes32","internalType":"bytes32"}],"outputs":[{"name":"","type":"bool","internalType":"bool"}],"stateMutability":"view"},{"type":"function","name":"filledSubtrees","inputs":[{"name":"","type":"uint256","internalType":"uint256"}],"outputs":[{"name":"","type":"bytes32","internalType":"bytes32"}],"stateMutability":"view"},{"type":"function","name":"hashLeftRight","inputs":[{"name":"_left","type":"bytes32","internalType":"bytes32"},{"name":"_right","type":"bytes32","internalType":"bytes32"}],"outputs":[{"name":"","type":"bytes32","internalType":"bytes32"}],"stateMutability":"view"},{"type":"function","name":"hasher","inputs":[],"outputs":[{"name":"","type":"address","internalType":"contract IHasher"}],"stateMutability":"view"},{"type":"function","name":"infos","inputs":[{"name":"","type":"uint256","internalType":"uint256"}],"outputs":[{"name":"info","type":"string","internalType":"string"},{"name":"agreedNum","type":"uint256","internalType":"uint256"},{"name":"disagreedNum","type":"uint256","internalType":"uint256"}],"stateMutability":"view"},{"type":"function","name":"insert","inputs":[{"name":"_leaf","type":"bytes32","internalType":"bytes32"}],"outputs":[{"name":"","type":"uint32","internalType":"uint32"}],"stateMutability":"nonpayable"},{"type":"function","name":"isKnownRoot","inputs":[{"name":"_root","type":"bytes32","internalType":"bytes32"}],"outputs":[{"name":"","type":"bool","internalType":"bool"}],"stateMutability":"view"},{"type":"function","name":"levels","inputs":[],"outputs":[{"name":"","type":"uint32","internalType":"uint32"}],"stateMutability":"view"},{"type":"function","name":"nextIndex","inputs":[],"outputs":[{"name":"","type":"uint32","internalType":"uint32"}],"stateMutability":"view"},{"type":"function","name":"nullilfierHashesWithSn","inputs":[{"name":"","type":"bytes32","internalType":"bytes32"}],"outputs":[{"name":"","type":"bool","internalType":"bool"}],"stateMutability":"view"},{"type":"function","name":"register","inputs":[{"name":"commitment","type":"bytes32","internalType":"bytes32"}],"outputs":[],"stateMutability":"nonpayable"},{"type":"function","name":"root","inputs":[],"outputs":[{"name":"","type":"bytes32","internalType":"bytes32"}],"stateMutability":"view"},{"type":"function","name":"sn","inputs":[],"outputs":[{"name":"","type":"uint256","internalType":"uint256"}],"stateMutability":"view"},{"type":"function","name":"verifier","inputs":[],"outputs":[{"name":"","type":"address","internalType":"contract IVerifier"}],"stateMutability":"view"},{"type":"function","name":"vote","inputs":[{"name":"_proof","type":"bytes","internalType":"bytes"},{"name":"_root","type":"bytes32","internalType":"bytes32"},{"name":"_nullilfierHashWithSn","type":"bytes32","internalType":"bytes32"},{"name":"_ticketNum","type":"uint256","internalType":"uint256"},{"name":"_ifAgreed","type":"uint256","internalType":"uint256"}],"outputs":[],"stateMutability":"nonpayable"},{"type":"function","name":"zeros","inputs":[{"name":"i","type":"uint32","internalType":"uint32"}],"outputs":[{"name":"","type":"bytes32","internalType":"bytes32"}],"stateMutability":"pure"},{"type":"event","name":"Register","inputs":[{"name":"commitment","type":"bytes32","indexed":false,"internalType":"bytes32"},{"name":"leafIndex","type":"uint32","indexed":false,"internalType":"uint32"}],"anonymous":false},{"type":"error","name":"ReentrancyGuardReentrantCall","inputs":[]}],"bytecode":{"object":"0x60c06040523480156200001157600080fd5b50604051620024cf380380620024cf833981016040819052620000349162000aa2565b6000805463ffffffff191663ffffffff83161781556001600160a01b038416608052819084905b60005463ffffffff9081169082161015620000a6576200007b816200037d565b63ffffffff8216600090815260016020526040902055806200009d8162000afe565b9150506200005b565b5050600160038190556001600160a01b03841660a0908152604080519182018152600a60608301908152696d65737361676520303160b01b608084015282526000602080840182905291830181905292909252600690915280519091507f3e5fec24aa4dc4e5aee2e025e51e1392c72a2500577559fae9665c6d52bd6a3190819062000133908262000bd5565b506020828101516001830155604092830151600292830155825160a081018452600a606082019081526936b2b9b9b0b3b290181960b11b60808301528152600081830181905293810184905291909252600690915280517f8819ef417987f8ae7a81f42cdfb18815282fe989326fbff903d13cf0e03ace29908190620001ba908262000bd5565b506020828101516001830155604092830151600290920191909155815160a081018352600a60608201908152696d65737361676520303360b01b60808301528152600081830181905292810183905260039092526006905280517f75f96ab15d697e93042dc45b5c896c4b27e89bb6eaf39475c5c371cb2513f7d290819062000244908262000bd5565b506020828101516001830155604092830151600290920191909155815160a081018352600a60608201908152691b595cdcd859d9480c0d60b21b60808301528152600081830181905292810183905260049092526006905280517fc5069e24aaadb2addc3e52e868fcf3f4f8acf5a87e24300992fd4540c2a87eed908190620002ce908262000bd5565b506020828101516001830155604092830151600290920191909155815160a081018352600a60608201908152696d65737361676520303560b01b60808301528152600081830181905292810183905260059092526006905280517fbfd358e93f18da3ed276c3afdbdba00b8f0b6008a03476a6a86bd6320ee6938b90819062000358908262000bd5565b5060208201516001820155604090910151600290910155505060056007555062000ca1565b60008163ffffffff16600003620003b557507f2fe54c60d3acabf3343a35b6eba15db4821b340f76e741e2249685ed4899af6c919050565b8163ffffffff16600103620003eb57507f256a6135777eee2fd26f54b8b7037a25439d5235caee224154186d2b8a52e31d919050565b8163ffffffff166002036200042157507f1151949895e82ab19924de92c40a3d6f7bcb60d92b00504b8199613683f0c200919050565b8163ffffffff166003036200045757507f20121ee811489ff8d61f09fb89e313f14959a0f28bb428a20dba6b0b068b3bdb919050565b8163ffffffff166004036200048d57507f0a89ca6ffa14cc462cfedb842c30ed221a50a3d6bf022a6a57dc82ab24c157c9919050565b8163ffffffff16600503620004c357507f24ca05c2b5cd42e890d6be94c68d0689f4f21c9cec9c0f13fe41d566dfb54959919050565b8163ffffffff16600603620004f957507f1ccb97c932565a92c60156bdba2d08f3bf1377464e025cee765679e604a7315c919050565b8163ffffffff166007036200052f57507f19156fbd7d1a8bf5cba8909367de1b624534ebab4f0f79e003bccdd1b182bdb4919050565b8163ffffffff166008036200056557507f261af8c1f0912e465744641409f622d466c3920ac6e5ff37e36604cb11dfff80919050565b8163ffffffff166009036200059a57507e58459724ff6ca5a1652fcbc3e82b93895cf08e975b19beab3f54c217d1c007919050565b8163ffffffff16600a03620005d057507f1f04ef20dee48d39984d8eabe768a70eafa6310ad20849d4573c3c40c2ad1e30919050565b8163ffffffff16600b036200060657507f1bea3dec5dab51567ce7e200a30f7ba6d4276aeaa53e2686f962a46c66d511e5919050565b8163ffffffff16600c036200063c57507f0ee0f941e2da4b9e31c3ca97a40d8fa9ce68d97c084177071b3cb46cd3372f0f919050565b8163ffffffff16600d036200067257507f1ca9503e8935884501bbaf20be14eb4c46b89772c97b96e3b2ebf3a36a948bbd919050565b8163ffffffff16600e03620006a857507f133a80e30697cd55d8f7d4b0965b7be24057ba5dc3da898ee2187232446cb108919050565b8163ffffffff16600f03620006de57507f13e6d8fc88839ed76e182c2a779af5b2c0da9dd18c90427a644f7e148a6253b6919050565b8163ffffffff166010036200071457507f1eb16b057a477f4bc8f572ea6bee39561098f78f15bfb3699dcbb7bd8db61854919050565b8163ffffffff166011036200074a57507f0da2cb16a1ceaabf1c16b838f7a9e3f2a3a3088d9e0a6debaa748114620696ea919050565b8163ffffffff166012036200078057507f24a3b3d822420b14b5d8cb6c28a574f01e98ea9e940551d2ebd75cee12649f9d919050565b8163ffffffff16601303620007b657507f198622acbd783d1b0d9064105b1fc8e4d8889de95c4c519b3f635809fe6afc05919050565b8163ffffffff16601403620007ec57507f29d7ed391256ccc3ea596c86e933b89ff339d25ea8ddced975ae2fe30b5296d4919050565b8163ffffffff166015036200082257507f19be59f2f0413ce78c0c3703a3a5451b1d7f39629fa33abd11548a76065b2967919050565b8163ffffffff166016036200085857507f1ff3f61797e538b70e619310d33f2a063e7eb59104e112e95738da1254dc3453919050565b8163ffffffff166017036200088e57507f10c16ae9959cf8358980d9dd9616e48228737310a10e2b6b731c1a548f036c48919050565b8163ffffffff16601803620008c457507f0ba433a63174a90ac20992e75e3095496812b652685b5e1a2eae0b1bf4e8fcd1919050565b8163ffffffff16601903620008fa57507f019ddb9df2bc98d987d0dfeca9d2b643deafab8f7036562e627c3667266a044c919050565b8163ffffffff16601a036200093057507f2d3c88b23175c5a5565db928414c66d1912b11acf974b2e644caaac04739ce99919050565b8163ffffffff16601b036200096657507f2eab55f6ae4e66e32c5189eed5c470840863445760f5ed7e7b69b2a62600f354919050565b8163ffffffff16601c036200099b57507e2df37a2642621802383cf952bf4dd1f32e05433beeb1fd41031fb7eace979d919050565b8163ffffffff16601d03620009d157507f104aeb41435db66c3e62feccc1d6f5d98d0a0ed75d1374db457cf462e3a1f427919050565b8163ffffffff16601e0362000a0757507f1f3c6fd858e9a7d4b0d1f38e256a09d81d5a5e3c963987e2d4b814cfab7c6ebb919050565b8163ffffffff16601f0362000a3d57507f2c7a07d20dff79d01fecedc1134284a8d08436606c93693b67e333f671bf69cc919050565b60405162461bcd60e51b815260206004820152601360248201527f496e646578206f7574206f6620626f756e647300000000000000000000000000604482015260640160405180910390fd5b6001600160a01b038116811462000a9f57600080fd5b50565b60008060006060848603121562000ab857600080fd5b835162000ac58162000a89565b602085015190935062000ad88162000a89565b604085015190925063ffffffff8116811462000af357600080fd5b809150509250925092565b600063ffffffff80831681810362000b2657634e487b7160e01b600052601160045260246000fd5b6001019392505050565b634e487b7160e01b600052604160045260246000fd5b600181811c9082168062000b5b57607f821691505b60208210810362000b7c57634e487b7160e01b600052602260045260246000fd5b50919050565b601f82111562000bd057600081815260208120601f850160051c8101602086101562000bab5750805b601f850160051c820191505b8181101562000bcc5782815560010162000bb7565b5050505b505050565b81516001600160401b0381111562000bf15762000bf162000b30565b62000c098162000c02845462000b46565b8462000b82565b602080601f83116001811462000c41576000841562000c285750858301515b600019600386901b1c1916600185901b17855562000bcc565b600085815260208120601f198616915b8281101562000c725788860151825594840194600190910190840162000c51565b508582101562000c915787850151600019600388901b60f8161c191681555b5050505050600190811b01905550565b60805160a0516117f362000cdc600039600081816101400152610fa1015260008181610289015281816105f401526106a401526117f36000f3fe608060405234801561001057600080fd5b506004361061010b5760003560e01c8063839df945116100a2578063ed33639f11610071578063ed33639f14610284578063ed392eff146102ab578063f178e47c146102be578063f872bec0146102de578063fc7e9c6f146102e757600080fd5b8063839df94514610230578063a7f5313114610253578063e1fa8e8414610266578063ebf0c7171461027b57600080fd5b8063414a37ba116100de578063414a37ba146101c35780634c3f21d6146101d85780634ecf518b1461020b5780636d9833e31461021b57600080fd5b806328de3c9b146101105780632b7ac3f31461013b5780632d287e431461017a57806338bf282e146101a2575b600080fd5b61012361011e36600461127f565b6102ff565b60405161013293929190611298565b60405180910390f35b6101627f000000000000000000000000000000000000000000000000000000000000000081565b6040516001600160a01b039091168152602001610132565b61018d61018836600461127f565b6103a9565b60405163ffffffff9091168152602001610132565b6101b56101b03660046112f4565b610506565b604051908152602001610132565b6101b560008051602061179e83398151915281565b6101fb6101e636600461127f565b60056020526000908152604090205460ff1681565b6040519015158152602001610132565b60005461018d9063ffffffff1681565b6101fb61022936600461127f565b6002541490565b6101fb61023e36600461127f565b60046020526000908152604090205460ff1681565b6101b5610261366004611316565b610722565b61027961027436600461127f565b610e00565b005b6101b560025481565b6101627f000000000000000000000000000000000000000000000000000000000000000081565b6102796102b9366004611343565b610ee5565b6101b56102cc36600461127f565b60016020526000908152604090205481565b6101b560075481565b60005461018d90640100000000900463ffffffff1681565b60066020526000908152604090208054819061031a906113d3565b80601f0160208091040260200160405190810160405280929190818152602001828054610346906113d3565b80156103935780601f1061036857610100808354040283529160200191610393565b820191906000526020600020905b81548152906001019060200180831161037657829003601f168201915b5050505050908060010154908060020154905083565b6000805463ffffffff64010000000082048116916103c991166002611534565b63ffffffff168163ffffffff160361041e5760405162461bcd60e51b815260206004820152601360248201527213595c9adb19481d1c9959481a5cc8199d5b1b606a1b60448201526064015b60405180910390fd5b8083600080805b60005463ffffffff90811690821610156104c357610444600286611567565b63ffffffff1660000361047c5783925061045d81610722565b63ffffffff821660009081526001602052604090208590559150610498565b63ffffffff811660009081526001602052604090205492508391505b6104a28383610506565b93506104af60028661158a565b9450806104bb816115ad565b915050610425565b5060028390556104d48560016115d0565b6000805463ffffffff929092166401000000000267ffffffff0000000019909216919091179055509295945050505050565b600060008051602061179e83398151915283106105655760405162461bcd60e51b815260206004820181905260248201527f5f6c6566742073686f756c6420626520696e7369646520746865206669656c646044820152606401610415565b60008051602061179e83398151915282106105cc5760405162461bcd60e51b815260206004820152602160248201527f5f72696768742073686f756c6420626520696e7369646520746865206669656c6044820152601960fa1b6064820152608401610415565b604051633f1a118760e01b8152600481018490526000602482018190526044820181905284917f00000000000000000000000000000000000000000000000000000000000000006001600160a01b031690633f1a1187906064016040805180830381865afa158015610642573d6000803e3d6000fd5b505050506040513d601f19601f8201168201806040525081019061066691906115f4565b909250905060008051602061179e833981519152848308604051633f1a118760e01b81526004810182905260248101839052600060448201529092507f00000000000000000000000000000000000000000000000000000000000000006001600160a01b031690633f1a1187906064016040805180830381865afa1580156106f2573d6000803e3d6000fd5b505050506040513d601f19601f8201168201806040525081019061071691906115f4565b50925050505b92915050565b60008163ffffffff1660000361075957507f2fe54c60d3acabf3343a35b6eba15db4821b340f76e741e2249685ed4899af6c919050565b8163ffffffff1660010361078e57507f256a6135777eee2fd26f54b8b7037a25439d5235caee224154186d2b8a52e31d919050565b8163ffffffff166002036107c357507f1151949895e82ab19924de92c40a3d6f7bcb60d92b00504b8199613683f0c200919050565b8163ffffffff166003036107f857507f20121ee811489ff8d61f09fb89e313f14959a0f28bb428a20dba6b0b068b3bdb919050565b8163ffffffff1660040361082d57507f0a89ca6ffa14cc462cfedb842c30ed221a50a3d6bf022a6a57dc82ab24c157c9919050565b8163ffffffff1660050361086257507f24ca05c2b5cd42e890d6be94c68d0689f4f21c9cec9c0f13fe41d566dfb54959919050565b8163ffffffff1660060361089757507f1ccb97c932565a92c60156bdba2d08f3bf1377464e025cee765679e604a7315c919050565b8163ffffffff166007036108cc57507f19156fbd7d1a8bf5cba8909367de1b624534ebab4f0f79e003bccdd1b182bdb4919050565b8163ffffffff1660080361090157507f261af8c1f0912e465744641409f622d466c3920ac6e5ff37e36604cb11dfff80919050565b8163ffffffff1660090361093557507e58459724ff6ca5a1652fcbc3e82b93895cf08e975b19beab3f54c217d1c007919050565b8163ffffffff16600a0361096a57507f1f04ef20dee48d39984d8eabe768a70eafa6310ad20849d4573c3c40c2ad1e30919050565b8163ffffffff16600b0361099f57507f1bea3dec5dab51567ce7e200a30f7ba6d4276aeaa53e2686f962a46c66d511e5919050565b8163ffffffff16600c036109d457507f0ee0f941e2da4b9e31c3ca97a40d8fa9ce68d97c084177071b3cb46cd3372f0f919050565b8163ffffffff16600d03610a0957507f1ca9503e8935884501bbaf20be14eb4c46b89772c97b96e3b2ebf3a36a948bbd919050565b8163ffffffff16600e03610a3e57507f133a80e30697cd55d8f7d4b0965b7be24057ba5dc3da898ee2187232446cb108919050565b8163ffffffff16600f03610a7357507f13e6d8fc88839ed76e182c2a779af5b2c0da9dd18c90427a644f7e148a6253b6919050565b8163ffffffff16601003610aa857507f1eb16b057a477f4bc8f572ea6bee39561098f78f15bfb3699dcbb7bd8db61854919050565b8163ffffffff16601103610add57507f0da2cb16a1ceaabf1c16b838f7a9e3f2a3a3088d9e0a6debaa748114620696ea919050565b8163ffffffff16601203610b1257507f24a3b3d822420b14b5d8cb6c28a574f01e98ea9e940551d2ebd75cee12649f9d919050565b8163ffffffff16601303610b4757507f198622acbd783d1b0d9064105b1fc8e4d8889de95c4c519b3f635809fe6afc05919050565b8163ffffffff16601403610b7c57507f29d7ed391256ccc3ea596c86e933b89ff339d25ea8ddced975ae2fe30b5296d4919050565b8163ffffffff16601503610bb157507f19be59f2f0413ce78c0c3703a3a5451b1d7f39629fa33abd11548a76065b2967919050565b8163ffffffff16601603610be657507f1ff3f61797e538b70e619310d33f2a063e7eb59104e112e95738da1254dc3453919050565b8163ffffffff16601703610c1b57507f10c16ae9959cf8358980d9dd9616e48228737310a10e2b6b731c1a548f036c48919050565b8163ffffffff16601803610c5057507f0ba433a63174a90ac20992e75e3095496812b652685b5e1a2eae0b1bf4e8fcd1919050565b8163ffffffff16601903610c8557507f019ddb9df2bc98d987d0dfeca9d2b643deafab8f7036562e627c3667266a044c919050565b8163ffffffff16601a03610cba57507f2d3c88b23175c5a5565db928414c66d1912b11acf974b2e644caaac04739ce99919050565b8163ffffffff16601b03610cef57507f2eab55f6ae4e66e32c5189eed5c470840863445760f5ed7e7b69b2a62600f354919050565b8163ffffffff16601c03610d2357507e2df37a2642621802383cf952bf4dd1f32e05433beeb1fd41031fb7eace979d919050565b8163ffffffff16601d03610d5857507f104aeb41435db66c3e62feccc1d6f5d98d0a0ed75d1374db457cf462e3a1f427919050565b8163ffffffff16601e03610d8d57507f1f3c6fd858e9a7d4b0d1f38e256a09d81d5a5e3c963987e2d4b814cfab7c6ebb919050565b8163ffffffff16601f03610dc257507f2c7a07d20dff79d01fecedc1134284a8d08436606c93693b67e333f671bf69cc919050565b60405162461bcd60e51b8152602060048201526013602482015272496e646578206f7574206f6620626f756e647360681b6044820152606401610415565b610e08611255565b60008181526004602052604090205460ff1615610e675760405162461bcd60e51b815260206004820152601d60248201527f54686520636f6d6d69746d656e7420686173206265656e2061646465640000006044820152606401610415565b6000610e72826103a9565b60008381526004602052604090819020805460ff19166001179055519091507f460fa2edc16bf43606e767a6537a0cdf29a832ca7b3342c789896bfe45adda4890610ecf908490849091825263ffffffff16602082015260400190565b60405180910390a150610ee26001600355565b50565b610eed611255565b60008381526005602052604090205460ff1615610f4c5760405162461bcd60e51b815260206004820152601f60248201527f546865206e6f74652068617320616c7265616479206265656e207370656e74006044820152606401610415565b6002548414610f8f5760405162461bcd60e51b815260206004820152600f60248201526e526f6f74206e6f742065786973747360881b6044820152606401610415565b6000610f9d86880188611618565b90507f00000000000000000000000000000000000000000000000000000000000000006001600160a01b0316635fe8c13b604051806040016040528084600060088110610fec57610fec6116a5565b6020020151815260200184600160088110611009576110096116a5565b6020020151905260408051608081018252858201519181019182529081906060820187600360200201518152508152602001604051806040016040528087600460088110611059576110596116a5565b6020020151815260200187600560088110611076576110766116a5565b602002015190529052604080518082019091528086600660200201518152602001866007600881106110aa576110aa6116a5565b602002015181525060405180608001604052808b60001c81526020018a60001c8152602001898152602001888152506040518563ffffffff1660e01b81526004016110f894939291906116e4565b6020604051808303816000875af1158015611117573d6000803e3d6000fd5b505050506040513d601f19601f8201168201806040525081019061113b9190611768565b61117c5760405162461bcd60e51b815260206004820152601260248201527124b73b30b634b2103b37ba3290383937b7b360711b6044820152606401610415565b6000848152600560205260409020805460ff191660011790558115806111a25750816001145b6111dd5760405162461bcd60e51b815260206004820152600c60248201526b496e76616c696420766f746560a01b6044820152606401610415565b8160010361121257600160066000858152602001908152602001600020600101600082825461120c919061178a565b90915550505b8160000361124257600083815260066020526040812060020180546001929061123c90849061178a565b90915550505b5061124d6001600355565b505050505050565b60026003540361127857604051633ee5aeb560e01b815260040160405180910390fd5b6002600355565b60006020828403121561129157600080fd5b5035919050565b606081526000845180606084015260005b818110156112c657602081880181015160808684010152016112a9565b506000608082850101526080601f19601f830116840101915050836020830152826040830152949350505050565b6000806040838503121561130757600080fd5b50508035926020909101359150565b60006020828403121561132857600080fd5b813563ffffffff8116811461133c57600080fd5b9392505050565b60008060008060008060a0878903121561135c57600080fd5b863567ffffffffffffffff8082111561137457600080fd5b818901915089601f83011261138857600080fd5b81358181111561139757600080fd5b8a60208285010111156113a957600080fd5b60209283019b909a5091890135986040810135985060608101359750608001359550909350505050565b600181811c908216806113e757607f821691505b60208210810361140757634e487b7160e01b600052602260045260246000fd5b50919050565b634e487b7160e01b600052601160045260246000fd5b600181815b80851115611460578163ffffffff048211156114465761144661140d565b8085161561145357918102915b93841c9390800290611428565b509250929050565b6000826114775750600161071c565b816114845750600061071c565b816001811461149a57600281146114a4576114d5565b600191505061071c565b60ff8411156114b5576114b561140d565b6001841b915063ffffffff8211156114cf576114cf61140d565b5061071c565b5060208310610133831016604e8410600b841016171561150c575081810a63ffffffff8111156115075761150761140d565b61071c565b6115168383611423565b8063ffffffff0482111561152c5761152c61140d565b029392505050565b600063ffffffff611549818516828516611468565b949350505050565b634e487b7160e01b600052601260045260246000fd5b600063ffffffff8084168061157e5761157e611551565b92169190910692915050565b600063ffffffff808416806115a1576115a1611551565b92169190910492915050565b600063ffffffff8083168181036115c6576115c661140d565b6001019392505050565b63ffffffff8181168382160190808211156115ed576115ed61140d565b5092915050565b6000806040838503121561160757600080fd5b505080516020909101519092909150565b600061010080838503121561162c57600080fd5b83601f84011261163b57600080fd5b60405181810181811067ffffffffffffffff8211171561166b57634e487b7160e01b600052604160045260246000fd5b60405290830190808583111561168057600080fd5b845b8381101561169a578035825260209182019101611682565b509095945050505050565b634e487b7160e01b600052603260045260246000fd5b8060005b60028110156116de5781518452602093840193909101906001016116bf565b50505050565b61018081016116f382876116bb565b60408083018660005b6002811015611723576117108383516116bb565b91830191602091909101906001016116fc565b5050505061173460c08301856116bb565b61010082018360005b600481101561175c57815183526020928301929091019060010161173d565b50505095945050505050565b60006020828403121561177a57600080fd5b8151801515811461133c57600080fd5b8082018082111561071c5761071c61140d56fe30644e72e131a029b85045b68181585d2833e84879b9709143e1f593f0000001a2646970667358221220b55ec3aaba3019cc8bb21fa06a12da4f612c94254e4613c86800fb518cb0ca6864736f6c63430008140033","linkReferences":{}},"methodIdentifiers":{"FIELD_SIZE()":"414a37ba","commitments(bytes32)":"839df945","filledSubtrees(uint256)":"f178e47c","hashLeftRight(bytes32,bytes32)":"38bf282e","hasher()":"ed33639f","infos(uint256)":"28de3c9b","insert(bytes32)":"2d287e43","isKnownRoot(bytes32)":"6d9833e3","levels()":"4ecf518b","nextIndex()":"fc7e9c6f","nullilfierHashesWithSn(bytes32)":"4c3f21d6","register(bytes32)":"e1fa8e84","root()":"ebf0c717","sn()":"f872bec0","verifier()":"2b7ac3f3","vote(bytes,bytes32,bytes32,uint256,uint256)":"ed392eff","zeros(uint32)":"a7f53131"},"id":22}